{
  "_format": "hh-sol-artifact-1",
  "contractName": "SavingsPool",
  "sourceName": "contracts/SavingsPool.sol",
  "abi": [
    {
      "anonymous": false,
      "inputs": [
        {
          "indexed": true,
          "internalType": "uint256",
          "name": "poolId",
          "type": "uint256"
        },
        {
          "indexed": true,
          "internalType": "address",
          "name": "member",
          "type": "address"
        },
        {
          "indexed": false,
          "internalType": "uint256",
          "name": "amount",
          "type": "uint256"
        }
      ],
      "name": "ContributionMade",
      "type": "event"
    },
    {
      "anonymous": false,
      "inputs": [
        {
          "indexed": true,
          "internalType": "uint256",
          "name": "poolId",
          "type": "uint256"
        },
        {
          "indexed": false,
          "internalType": "uint256",
          "name": "totalAmount",
          "type": "uint256"
        }
      ],
      "name": "PoolCompleted",
      "type": "event"
    },
    {
      "anonymous": false,
      "inputs": [
        {
          "indexed": true,
          "internalType": "uint256",
          "name": "poolId",
          "type": "uint256"
        },
        {
          "indexed": false,
          "internalType": "string",
          "name": "name",
          "type": "string"
        },
        {
          "indexed": false,
          "internalType": "address",
          "name": "creator",
          "type": "address"
        }
      ],
      "name": "PoolCreated",
      "type": "event"
    },
    {
      "anonymous": false,
      "inputs": [
        {
          "indexed": true,
          "internalType": "uint256",
          "name": "poolId",
          "type": "uint256"
        },
        {
          "indexed": true,
          "internalType": "address",
          "name": "member",
          "type": "address"
        },
        {
          "indexed": false,
          "internalType": "uint256",
          "name": "amount",
          "type": "uint256"
        }
      ],
      "name": "Withdrawal",
      "type": "event"
    },
    {
      "inputs": [
        {
          "internalType": "uint256",
          "name": "_poolId",
          "type": "uint256"
        }
      ],
      "name": "contribute",
      "outputs": [],
      "stateMutability": "payable",
      "type": "function"
    },
    {
      "inputs": [
        {
          "internalType": "string",
          "name": "_name",
          "type": "string"
        },
        {
          "internalType": "uint256",
          "name": "_targetAmount",
          "type": "uint256"
        },
        {
          "internalType": "uint256",
          "name": "_contributionAmount",
          "type": "uint256"
        },
        {
          "internalType": "uint256",
          "name": "_durationDays",
          "type": "uint256"
        }
      ],
      "name": "createPool",
      "outputs": [
        {
          "internalType": "uint256",
          "name": "",
          "type": "uint256"
        }
      ],
      "stateMutability": "nonpayable",
      "type": "function"
    },
    {
      "inputs": [
        {
          "internalType": "uint256",
          "name": "_poolId",
          "type": "uint256"
        },
        {
          "internalType": "address",
          "name": "_member",
          "type": "address"
        }
      ],
      "name": "getMemberContribution",
      "outputs": [
        {
          "internalType": "uint256",
          "name": "",
          "type": "uint256"
        }
      ],
      "stateMutability": "view",
      "type": "function"
    },
    {
      "inputs": [
        {
          "internalType": "uint256",
          "name": "_poolId",
          "type": "uint256"
        }
      ],
      "name": "getPool",
      "outputs": [
        {
          "internalType": "string",
          "name": "name",
          "type": "string"
        },
        {
          "internalType": "address",
          "name": "creator",
          "type": "address"
        },
        {
          "internalType": "uint256",
          "name": "targetAmount",
          "type": "uint256"
        },
        {
          "internalType": "uint256",
          "name": "contributionAmount",
          "type": "uint256"
        },
        {
          "internalType": "uint256",
          "name": "totalContributed",
          "type": "uint256"
        },
        {
          "internalType": "uint256",
          "name": "memberCount",
          "type": "uint256"
        },
        {
          "internalType": "bool",
          "name": "isActive",
          "type": "bool"
        }
      ],
      "stateMutability": "view",
      "type": "function"
    },
    {
      "inputs": [],
      "name": "getPoolCount",
      "outputs": [
        {
          "internalType": "uint256",
          "name": "",
          "type": "uint256"
        }
      ],
      "stateMutability": "view",
      "type": "function"
    },
    {
      "inputs": [
        {
          "internalType": "uint256",
          "name": "_poolId",
          "type": "uint256"
        }
      ],
      "name": "getPoolMembers",
      "outputs": [
        {
          "internalType": "address[]",
          "name": "",
          "type": "address[]"
        }
      ],
      "stateMutability": "view",
      "type": "function"
    },
    {
      "inputs": [
        {
          "internalType": "uint256",
          "name": "",
          "type": "uint256"
        },
        {
          "internalType": "address",
          "name": "",
          "type": "address"
        }
      ],
      "name": "poolMembers",
      "outputs": [
        {
          "internalType": "uint256",
          "name": "totalContributed",
          "type": "uint256"
        },
        {
          "internalType": "uint256",
          "name": "lastContribution",
          "type": "uint256"
        },
        {
          "internalType": "bool",
          "name": "isMember",
          "type": "bool"
        }
      ],
      "stateMutability": "view",
      "type": "function"
    },
    {
      "inputs": [
        {
          "internalType": "uint256",
          "name": "",
          "type": "uint256"
        }
      ],
      "name": "pools",
      "outputs": [
        {
          "internalType": "string",
          "name": "name",
          "type": "string"
        },
        {
          "internalType": "address",
          "name": "creator",
          "type": "address"
        },
        {
          "internalType": "uint256",
          "name": "targetAmount",
          "type": "uint256"
        },
        {
          "internalType": "uint256",
          "name": "contributionAmount",
          "type": "uint256"
        },
        {
          "internalType": "uint256",
          "name": "duration",
          "type": "uint256"
        },
        {
          "internalType": "uint256",
          "name": "createdAt",
          "type": "uint256"
        },
        {
          "internalType": "uint256",
          "name": "totalContributed",
          "type": "uint256"
        },
        {
          "internalType": "bool",
          "name": "isActive",
          "type": "bool"
        }
      ],
      "stateMutability": "view",
      "type": "function"
    },
    {
      "inputs": [
        {
          "internalType": "uint256",
          "name": "_poolId",
          "type": "uint256"
        }
      ],
      "name": "withdraw",
      "outputs": [],
      "stateMutability": "nonpayable",
      "type": "function"
    }
  ],
  "bytecode": "0x608060405234801561001057600080fd5b50611cf1806100206000396000f3fe6080604052600436106100865760003560e01c80638eec5d70116100595780638eec5d7014610173578063a208298b1461019e578063ac4afa38146101db578063b1219e731461021f578063c1cbbca71461025c57610086565b8063068bcd8d1461008b5780632e1a7d4d146100ce578063601acc92146100f75780636cde7ab814610136575b600080fd5b34801561009757600080fd5b506100b260048036038101906100ad9190610eae565b610278565b6040516100c59796959493929190610fd6565b60405180910390f35b3480156100da57600080fd5b506100f560048036038101906100f09190610eae565b6103e7565b005b34801561010357600080fd5b5061011e60048036038101906101199190611078565b6106ca565b60405161012d939291906110b8565b60405180910390f35b34801561014257600080fd5b5061015d60048036038101906101589190611078565b61070e565b60405161016a91906110ef565b60405180910390f35b34801561017f57600080fd5b5061018861076c565b60405161019591906110ef565b60405180910390f35b3480156101aa57600080fd5b506101c560048036038101906101c0919061123f565b610778565b6040516101d291906110ef565b60405180910390f35b3480156101e757600080fd5b5061020260048036038101906101fd9190610eae565b610970565b6040516102169897969594939291906112c2565b60405180910390f35b34801561022b57600080fd5b5061024660048036038101906102419190610eae565b610a7d565b6040516102539190611405565b60405180910390f35b61027660048036038101906102719190610eae565b610b77565b005b606060008060008060008060008054905088106102ca576040517f08c379a00000000000000000000000000000000000000000000000000000000081526004016102c190611473565b60405180910390fd5b60008089815481106102df576102de611493565b5b90600052602060002090600902019050806000018160010160009054906101000a900473ffffffffffffffffffffffffffffffffffffffff1682600201548360030154846006015485600701805490508660080160009054906101000a900460ff1686805461034d906114f1565b80601f0160208091040260200160405190810160405280929190818152602001828054610379906114f1565b80156103c65780601f1061039b576101008083540402835291602001916103c6565b820191906000526020600020905b8154815290600101906020018083116103a957829003601f168201915b50505050509650975097509750975097509750975050919395979092949650565b600080549050811061042e576040517f08c379a000000000000000000000000000000000000000000000000000000000815260040161042590611473565b60405180910390fd5b600080828154811061044357610442611493565b5b9060005260206000209060090201905060006001600084815260200190815260200160002060003373ffffffffffffffffffffffffffffffffffffffff1673ffffffffffffffffffffffffffffffffffffffff16815260200190815260200160002090508060020160009054906101000a900460ff166104f8576040517f08c379a00000000000000000000000000000000000000000000000000000000081526004016104ef9061156e565b60405180910390fd5b600081600001541161053f576040517f08c379a0000000000000000000000000000000000000000000000000000000008152600401610536906115da565b60405180910390fd5b60008260080160009054906101000a900460ff16158061057257508260040154836005015461056e9190611629565b4210155b9050806105b4576040517f08c379a00000000000000000000000000000000000000000000000000000000081526004016105ab906116a9565b60405180910390fd5b6000826000015490506000836000018190555060003373ffffffffffffffffffffffffffffffffffffffff16826040516105ed906116fa565b60006040518083038185875af1925050503d806000811461062a576040519150601f19603f3d011682016040523d82523d6000602084013e61062f565b606091505b5050905080610673576040517f08c379a000000000000000000000000000000000000000000000000000000000815260040161066a9061175b565b60405180910390fd5b3373ffffffffffffffffffffffffffffffffffffffff16867f37e8063b72a944a76de602f32b82fd8c2a1c6f99564c727ffaf913c7762cd420846040516106ba91906110ef565b60405180910390a3505050505050565b6001602052816000526040600020602052806000526040600020600091509150508060000154908060010154908060020160009054906101000a900460ff16905083565b60006001600084815260200190815260200160002060008373ffffffffffffffffffffffffffffffffffffffff1673ffffffffffffffffffffffffffffffffffffffff16815260200190815260200160002060000154905092915050565b60008080549050905090565b60008084116107bc576040517f08c379a00000000000000000000000000000000000000000000000000000000081526004016107b3906117c7565b60405180910390fd5b600083116107ff576040517f08c379a00000000000000000000000000000000000000000000000000000000081526004016107f690611833565b60405180910390fd5b60008211610842576040517f08c379a00000000000000000000000000000000000000000000000000000000081526004016108399061189f565b60405180910390fd5b6000806001816001815401808255809150500390600052602060002090600902019050858160000190816108769190611a6b565b50338160010160006101000a81548173ffffffffffffffffffffffffffffffffffffffff021916908373ffffffffffffffffffffffffffffffffffffffff16021790555084816002018190555083816003018190555062015180836108db9190611b3d565b81600401819055504281600501819055506000816006018190555060018160080160006101000a81548160ff021916908315150217905550600060016000805490506109279190611b7f565b9050807f7eb8d63c0f8c2fb1b61dd0947e2f9eb707c7d44ec5d65a0761976cbc070197a5883360405161095b929190611bb3565b60405180910390a28092505050949350505050565b6000818154811061098057600080fd5b90600052602060002090600902016000915090508060000180546109a3906114f1565b80601f01602080910402602001604051908101604052809291908181526020018280546109cf906114f1565b8015610a1c5780601f106109f157610100808354040283529160200191610a1c565b820191906000526020600020905b8154815290600101906020018083116109ff57829003601f168201915b5050505050908060010160009054906101000a900473ffffffffffffffffffffffffffffffffffffffff16908060020154908060030154908060040154908060050154908060060154908060080160009054906101000a900460ff16905088565b60606000805490508210610ac6576040517f08c379a0000000000000000000000000000000000000000000000000000000008152600401610abd90611473565b60405180910390fd5b60008281548110610ada57610ad9611493565b5b9060005260206000209060090201600701805480602002602001604051908101604052809291908181526020018280548015610b6b57602002820191906000526020600020905b8160009054906101000a900473ffffffffffffffffffffffffffffffffffffffff1673ffffffffffffffffffffffffffffffffffffffff1681526020019060010190808311610b21575b50505050509050919050565b6000805490508110610bbe576040517f08c379a0000000000000000000000000000000000000000000000000000000008152600401610bb590611473565b60405180910390fd5b6000808281548110610bd357610bd2611493565b5b906000526020600020906009020190508060080160009054906101000a900460ff16610c34576040517f08c379a0000000000000000000000000000000000000000000000000000000008152600401610c2b90611c2f565b60405180910390fd5b8060030154341015610c7b576040517f08c379a0000000000000000000000000000000000000000000000000000000008152600401610c7290611c9b565b60405180910390fd5b60006001600084815260200190815260200160002060003373ffffffffffffffffffffffffffffffffffffffff1673ffffffffffffffffffffffffffffffffffffffff16815260200190815260200160002090508060020160009054906101000a900460ff16610d685760018160020160006101000a81548160ff02191690831515021790555081600701339080600181540180825580915050600190039060005260206000200160009091909190916101000a81548173ffffffffffffffffffffffffffffffffffffffff021916908373ffffffffffffffffffffffffffffffffffffffff1602179055505b34816000016000828254610d7c9190611629565b9250508190555042816001018190555034826006016000828254610da09190611629565b925050819055503373ffffffffffffffffffffffffffffffffffffffff16837f0a4a91237423e0a1766a761c7cb029311d8b95d6b1b81db1b949a70c98b4e08e34604051610dee91906110ef565b60405180910390a38160020154826006015410610e5f5760008260080160006101000a81548160ff021916908315150217905550827fe6e3f8167a0352c51f4a5dc639deb5c5679ccf396f92c55db62037faa0a235128360060154604051610e5691906110ef565b60405180910390a25b505050565b6000604051905090565b600080fd5b600080fd5b6000819050919050565b610e8b81610e78565b8114610e9657600080fd5b50565b600081359050610ea881610e82565b92915050565b600060208284031215610ec457610ec3610e6e565b5b6000610ed284828501610e99565b91505092915050565b600081519050919050565b600082825260208201905092915050565b60005b83811015610f15578082015181840152602081019050610efa565b60008484015250505050565b6000601f19601f8301169050919050565b6000610f3d82610edb565b610f478185610ee6565b9350610f57818560208601610ef7565b610f6081610f21565b840191505092915050565b600073ffffffffffffffffffffffffffffffffffffffff82169050919050565b6000610f9682610f6b565b9050919050565b610fa681610f8b565b82525050565b610fb581610e78565b82525050565b60008115159050919050565b610fd081610fbb565b82525050565b600060e0820190508181036000830152610ff0818a610f32565b9050610fff6020830189610f9d565b61100c6040830188610fac565b6110196060830187610fac565b6110266080830186610fac565b61103360a0830185610fac565b61104060c0830184610fc7565b98975050505050505050565b61105581610f8b565b811461106057600080fd5b50565b6000813590506110728161104c565b92915050565b6000806040838503121561108f5761108e610e6e565b5b600061109d85828601610e99565b92505060206110ae85828601611063565b9150509250929050565b60006060820190506110cd6000830186610fac565b6110da6020830185610fac565b6110e76040830184610fc7565b949350505050565b60006020820190506111046000830184610fac565b92915050565b600080fd5b600080fd5b7f4e487b7100000000000000000000000000000000000000000000000000000000600052604160045260246000fd5b61114c82610f21565b810181811067ffffffffffffffff8211171561116b5761116a611114565b5b80604052505050565b600061117e610e64565b905061118a8282611143565b919050565b600067ffffffffffffffff8211156111aa576111a9611114565b5b6111b382610f21565b9050602081019050919050565b82818337600083830152505050565b60006111e26111dd8461118f565b611174565b9050828152602081018484840111156111fe576111fd61110f565b5b6112098482856111c0565b509392505050565b600082601f8301126112265761122561110a565b5b81356112368482602086016111cf565b91505092915050565b6000806000806080858703121561125957611258610e6e565b5b600085013567ffffffffffffffff81111561127757611276610e73565b5b61128387828801611211565b945050602061129487828801610e99565b93505060406112a587828801610e99565b92505060606112b687828801610e99565b91505092959194509250565b60006101008201905081810360008301526112dd818b610f32565b90506112ec602083018a610f9d565b6112f96040830189610fac565b6113066060830188610fac565b6113136080830187610fac565b61132060a0830186610fac565b61132d60c0830185610fac565b61133a60e0830184610fc7565b9998505050505050505050565b600081519050919050565b600082825260208201905092915050565b6000819050602082019050919050565b61137c81610f8b565b82525050565b600061138e8383611373565b60208301905092915050565b6000602082019050919050565b60006113b282611347565b6113bc8185611352565b93506113c783611363565b8060005b838110156113f85781516113df8882611382565b97506113ea8361139a565b9250506001810190506113cb565b5085935050505092915050565b6000602082019050818103600083015261141f81846113a7565b905092915050565b7f506f6f6c20646f65736e27742065786973740000000000000000000000000000600082015250565b600061145d601283610ee6565b915061146882611427565b602082019050919050565b6000602082019050818103600083015261148c81611450565b9050919050565b7f4e487b7100000000000000000000000000000000000000000000000000000000600052603260045260246000fd5b7f4e487b7100000000000000000000000000000000000000000000000000000000600052602260045260246000fd5b6000600282049050600182168061150957607f821691505b60208210810361151c5761151b6114c2565b5b50919050565b7f4e6f742061206d656d6265720000000000000000000000000000000000000000600082015250565b6000611558600c83610ee6565b915061156382611522565b602082019050919050565b600060208201905081810360008301526115878161154b565b9050919050565b7f4e6f20636f6e747269627574696f6e7300000000000000000000000000000000600082015250565b60006115c4601083610ee6565b91506115cf8261158e565b602082019050919050565b600060208201905081810360008301526115f3816115b7565b9050919050565b7f4e487b7100000000000000000000000000000000000000000000000000000000600052601160045260246000fd5b600061163482610e78565b915061163f83610e78565b9250828201905080821115611657576116566115fa565b5b92915050565b7f43616e6e6f742077697468647261772079657400000000000000000000000000600082015250565b6000611693601383610ee6565b915061169e8261165d565b602082019050919050565b600060208201905081810360008301526116c281611686565b9050919050565b600081905092915050565b50565b60006116e46000836116c9565b91506116ef826116d4565b600082019050919050565b6000611705826116d7565b9150819050919050565b7f5472616e73666572206661696c65640000000000000000000000000000000000600082015250565b6000611745600f83610ee6565b91506117508261170f565b602082019050919050565b6000602082019050818103600083015261177481611738565b9050919050565b7f546172676574206d757374206265203e20300000000000000000000000000000600082015250565b60006117b1601283610ee6565b91506117bc8261177b565b602082019050919050565b600060208201905081810360008301526117e0816117a4565b9050919050565b7f436f6e747269627574696f6e206d757374206265203e20300000000000000000600082015250565b600061181d601883610ee6565b9150611828826117e7565b602082019050919050565b6000602082019050818103600083015261184c81611810565b9050919050565b7f4475726174696f6e206d757374206265203e2030000000000000000000000000600082015250565b6000611889601483610ee6565b915061189482611853565b602082019050919050565b600060208201905081810360008301526118b88161187c565b9050919050565b60008190508160005260206000209050919050565b60006020601f8301049050919050565b600082821b905092915050565b6000600883026119217fffffffffffffffffffffffffffffffffffffffffffffffffffffffffffffffff826118e4565b61192b86836118e4565b95508019841693508086168417925050509392505050565b6000819050919050565b600061196861196361195e84610e78565b611943565b610e78565b9050919050565b6000819050919050565b6119828361194d565b61199661198e8261196f565b8484546118f1565b825550505050565b600090565b6119ab61199e565b6119b6818484611979565b505050565b5b818110156119da576119cf6000826119a3565b6001810190506119bc565b5050565b601f821115611a1f576119f0816118bf565b6119f9846118d4565b81016020851015611a08578190505b611a1c611a14856118d4565b8301826119bb565b50505b505050565b600082821c905092915050565b6000611a4260001984600802611a24565b1980831691505092915050565b6000611a5b8383611a31565b9150826002028217905092915050565b611a7482610edb565b67ffffffffffffffff811115611a8d57611a8c611114565b5b611a9782546114f1565b611aa28282856119de565b600060209050601f831160018114611ad55760008415611ac3578287015190505b611acd8582611a4f565b865550611b35565b601f198416611ae3866118bf565b60005b82811015611b0b57848901518255600182019150602085019450602081019050611ae6565b86831015611b285784890151611b24601f891682611a31565b8355505b6001600288020188555050505b505050505050565b6000611b4882610e78565b9150611b5383610e78565b9250828202611b6181610e78565b91508282048414831517611b7857611b776115fa565b5b5092915050565b6000611b8a82610e78565b9150611b9583610e78565b9250828203905081811115611bad57611bac6115fa565b5b92915050565b60006040820190508181036000830152611bcd8185610f32565b9050611bdc6020830184610f9d565b9392505050565b7f506f6f6c206e6f74206163746976650000000000000000000000000000000000600082015250565b6000611c19600f83610ee6565b9150611c2482611be3565b602082019050919050565b60006020820190508181036000830152611c4881611c0c565b9050919050565b7f496e73756666696369656e7420636f6e747269627574696f6e00000000000000600082015250565b6000611c85601983610ee6565b9150611c9082611c4f565b602082019050919050565b60006020820190508181036000830152611cb481611c78565b905091905056fea2646970667358221220f906ec13260b5f2fcae30c62787e24a5ea98bbc49d9bccdae51442ff1c623e1364736f6c63430008140033",
  "linkReferences": {},
  "deployedLinkReferences": {}
}